:1000000010C02AC029C028C027C026C025C024C0CF
:1000100023C022C021C020C01FC01EC0C9C01CC038
:100020001BC011241FBECFE5D2E0DEBFCDBF10E064
:10003000A0E6B0E0E0EEF4E002C005900D92AE362E
:10004000B107D9F720E0AEE6B0E001C01D92A438B8
:10005000B207E1F709D242C2D3CF8370E82FF0E0B4
:10006000E05AFF4F8081807880838081A62FB0E0A6
:10007000AC59BF4F9C91892B80830895843060F4E4
:10008000E82FF0E0E05AFF4F8081662319F08F7768
:10009000808308958068FCCF662311F0DC98089572
:1000A000DC9A08952BB33091830081E090E001C089
:1000B000880F3A95EAF7809582238BBB8091830065
:1000C00091E0980F8330A9F090938300E091830032
:1000D000F0E0E05AFF4F808185BB8BB390918300A5
:1000E00021E030E001C0220F9A95EAF7822B8BBB0A
:1000F000089510928300EACFBF92CF92DF92EF92E1
:10010000FF920F931F93CF93DF93FC01EB018B01C1
:1001100020E0EE24E394F12C9AE0B92E3AE0C32ECD
:10012000D12CC701B89E7001B99EF00C1124CF01EB
:10013000B701B9D1AC01382F952FE41BF50B2F5F18
:10014000452B41F5D8011C92309761F544E0421BE4
:1001500050E0253010F050E040E070E060E0CE016B
:10016000820F911DB4D188819B8198838B83898173
:100170009A819827892798279A838983DF91CF913D
:100180001F910F91FF90EF90DF90CF90BF90089557
:10019000362F972F832FB60186D1892BC9F3D8012B
:1001A0003C93D2CF0F5F1F4F243009F0BACFDBCF83
:1001B0001F920F920FB60F9211240F931F932F933C
:1001C0003F934F935F936F937F938F939F93AF93DF
:1001D000BF93CF93DF93EF93FF93809182008823A7
:1001E00009F462C080918000909181000196909303
:1001F000810080938000803127E29207B1F56AE7A1
:1002000070E080917E0090917F0076DF80916200A7
:100210008068809362000AE710E0C0E0F801619115
:100220008F018C2F1ADFCF5FC430C1F7809171002E
:1002300091E0980F893009F4A4C09093710032DFE7
:10024000FF91EF91DF91CF91BF91AF919F918F91EE
:100250007F916F915F914F913F912F911F910F91DE
:100260000F900FBE0F901F90189580329E44F1F6AC
:1002700010928100109280006AE770E0809178000F
:100280009091790039DF809162008F7780936200CE
:100290000AE710E0C0E0F80161918F018C2FDDDEEC
:1002A000CF5FC430C1F7C2CFC09174008091770096
:1002B0008823C1F08091750090917600019690930B
:1002C000760080937500883E934061F480917800B9
:1002D000909179008F3027E29207B0F0109276006B
:1002E00010927500CC2309F4A1CF809172009091F7
:1002F00073009C012F5F3F4F8B3A9D40D9F03093A4
:1003000073002093720092CF0196909379008093AE
:100310007800C111E3CF6AE770E0EEDE0AE710E093
:10032000D0E0F80161918F018D2F97DEDF5FD4302F
:10033000C1F7D4CF1092730010927200DC2FD170ED
:10034000C0FF14C08FEF80936000809361008093A2
:10035000620080936300C150C0937400C11166CFE6
:10036000809162008F778093620060CF0AE710E08F
:10037000F80161918F018D2F70DEDF5FD430C1F7FE
:10038000EACF10927100CC9B0BC010927000CD9BF5
:1003900030C010926F00CE9B43C010926E004FCFC2
:1003A00080917000823320F48F5F80937000EFCFD4
:1003B000823369F78FEF8093700080917E00909177
:1003C0007F008F30F7E29F0728F4019690937F001B
:1003D00080937E0087E080937400109273001092E7
:1003E00072006AE770E080917E0090917F0084DE69
:1003F000CECF80916F00823320F48F5F80936F00A7
:10040000CACF823341F68FEF80936F00109277004E
:10041000109281001092800081E080938200BBCF17
:1004200080916E00823320F48F5F80936E0007CF3F
:10043000823309F004CF8FEF80936E0080918200A9
:10044000882351F010928200109279001092780067
:1004500010927F0010927E0081E0909177009111C0
:1004600080E080937700EBCE8BE083BF87E181BF94
:1004700081E089BF8FE08ABB8FEF84BB80E78BBBB5
:10048000809162008F778093620060E080E0E5DD1C
:1004900060E081E0E2DD60E082E0DFDD60E083E0FB
:1004A000DCDD7894FFCFAA1BBB1B51E107C0AA1F5C
:1004B000BB1FA617B70710F0A61BB70B881F991F05
:1004C0005A95A9F780959095BC01CD010895DC015E
:1004D00001C06D9341505040E0F70895F894FFCF6C
:0E04E000FFFFFFFF4079243019120278001050
:00000001FF
